:100000000C9434000C9482010C9499010C944600D9
:100010000C9446000C9446000C9446000C94460048
:100020000C9446000C94B0010C9446000C944600CD
:100030000C9446000C9446000C9446000C94460028
:100040000C9446000C9446000C9446000C94460018
:100050000C9446000C9446000C9446000C94460008
:100060000C9446000C94460011241FBECFEFD8E03C
:10007000DEBFCDBF11E0A0E0B1E001C01D92A6300F
:10008000B107E1F70E94D7000C94FC010C9400002A
:10009000DF93CF93CDB7DEB7AAE7B0E0EAE7F0E0B1
:1000A000808180688C93CF91DF910895DF93CF9307
:1000B000CDB7DEB7ACE7B0E0ECE7F0E080818C9341
:1000C000AAE7B0E0EAE7F0E0808180648C93E8E79B
:1000D000F0E0808191819093010180930001CF91A4
:1000E000DF910895DF93CF93CDB7DEB7AAE7B0E0F5
:1000F000EAE7F0E080818C93E8E7F0E0118210827B
:10010000CF91DF910895DF93CF93CDB7DEB7AAE209
:10011000B0E0EAE2F0E0808180648C93A4E2B0E099
:10012000E4E2F0E080818E7F8C93A8E2B0E0E8E228
:10013000F0E0808181608C93AAE2B0E0EAE2F0E036
:1001400080818B7F8C93AAE2B0E0EAE2F0E08081CC
:10015000877F8C93ABE2B0E0EBE2F0E080818460DB
:100160008C93ABE2B0E0EBE2F0E080818F7B8C938C
:10017000ABE2B0E0EBE2F0E0808188608C93CF915D
:10018000DF910895DF93CF93CDB7DEB7A9E6B0E056
:10019000E9E6F0E0808185608C93ADE3B0E0EDE3CB
:1001A000F0E0808183608C93CF91DF910895DF939D
:1001B000CF93CDB7DEB70E9483000E94C2000E9499
:1001C000D0010E9448000E94E801789480910501C6
:1001D000882309F475C080910301882309F470C055
:1001E000A5E2B0E0E5E2F0E080818F7E8C930E9492
:1001F0005600A0E7B0E0E0E7F0E0808181608C93FA
:1002000080910201882311F3A5E2B0E0E5E2F0E07D
:10021000808180618C9380910001909101018333F2
:10022000910520F4E7E4F0E01082D0CF8091000146
:10023000909101018233910560F0809100019091CD
:100240000101893C910528F4E7E4F0E080E4808333
:10025000BDCF8091000190910101883C910568F02B
:10026000809100019091010121E0853F920728F4DF
:10027000E7E4F0E080E88083A9CF809100019091CD
:10028000010121E0843F920768F080910001909184
:10029000010123E0893E920728F4E7E4F0E080ECD6
:1002A000808394CF809100019091010123E0893EE9
:1002B000920708F48BCFE7E4F0E08FEF808386CFDE
:1002C00080910501882349F080910301882329F456
:1002D000E7E4F0E080E8808379CFA0E7B0E0E0E7F2
:1002E000F0E080818C930E947200A5E2B0E0E5E22C
:1002F000F0E080818F7E8C93E7E4F0E01082109232
:10030000020164CF1F920F920FB60F9211248F93A8
:10031000DF93CF93CDB7DEB78091030180958093B3
:100320000301CF91DF918F910F900FBE0F901F901F
:1003300018951F920F920FB60F9211248F93DF938F
:10034000CF93CDB7DEB780910501809580930501ED
:10035000CF91DF918F910F900FBE0F901F90189546
:100360001F920F920FB60F9211248F93DF93CF93AA
:10037000CDB7DEB7809104018F5F80930401809137
:100380000401803F28F01092040181E08093020173
:10039000CF91DF918F910F900FBE0F901F90189506
:1003A000DF93CF93CDB7DEB7E6E4F0E01082A4E4AC
:1003B000B0E0E4E4F0E0808183688C93A5E4B0E0F1
:1003C000E5E4F0E0808185608C93CF91DF91089522
:1003D000DF93CF93CDB7DEB7E2EBF0E01082E0EB36
:1003E000F0E01082A1EBB0E0E1EBF0E0808187600B
:0C03F0008C93CF91DF910895F894FFCF1B
:00000001FF
