:100000000C9434000C947C010C94FB010C9446007D
:100010000C9446000C9446000C9446000C94460048
:100020000C9446000C9446000C9446000C94460038
:100030000C9446000C9446000C9446000C94460028
:100040000C9446000C9446000C9446000C94460018
:100050000C9446000C9446000C9446000C94460008
:100060000C9446000C94460011241FBECFEFD8E03C
:10007000DEBFCDBF11E0A0E0B1E001C01D92A13014
:10008000B107E1F70E94E9000C9423020C940000F0
:10009000DF93CF9300D0CDB7DEB71A821982AAE7DB
:1000A000B0E0EAE7F0E0808180648C93EAE7F0E07A
:1000B0008081882F90E0807490700097B9F7E8E70E
:1000C000F0E0808191819A83898389819A8182334A
:1000D000910520F4E7E4F0E01082E1CF89819A8174
:1000E0008233910550F089819A81883C910528F4EA
:1000F000E7E4F0E080E48083D2CF89819A81883C74
:10010000910558F089819A8121E0843F920728F473
:10011000E7E4F0E080E88083C2CF89819A8121E022
:10012000843F920758F089819A8123E0883E9207A4
:1001300028F4E7E4F0E080EC8083B1CF89819A81F4
:1001400023E0883E920708F4AACFE7E4F0E08FEFBF
:100150008083A5CFDF93CF93CDB7DEB7AAE2B0E01F
:10016000EAE2F0E080818D7F8C93ABE2B0E0EBE2DD
:10017000F0E080818D7F8C93AAE2B0E0EAE2F0E0CB
:1001800080818B7F8C93ABE2B0E0EBE2F0E080818A
:100190008B7F8C93A7E2B0E0E7E2F0E080818E7F76
:1001A0008C93A8E2B0E0E8E2F0E080818E7F8C934F
:1001B000AAE2B0E0EAE2F0E0808180648C93ABE2F6
:1001C000B0E0EBE2F0E0808180648C93CF91DF912E
:1001D0000895DF93CF9300D0CDB7DEB70E94AA0079
:1001E000AAE2B0E0EAE2F0E080818D7F8C93ABE29E
:1001F000B0E0EBE2F0E0808182608C93ABE2B0E0B3
:10020000EBE2F0E0808184608C93AAE2B0E0EAE265
:10021000F0E080818B7F8C93A7E2B0E0E7E2F0E032
:1002200080818E7F8C93A8E2B0E0E8E2F0E08081EC
:100230008E7F8C93AAE2B0E0EAE2F0E080818064F5
:100240008C93ABE2B0E0EBE2F0E080818F7B8C93AB
:10025000A9E6B0E0E9E6F0E0808181608C93A9E650
:10026000B0E0E9E6F0E080818D7F8C93ADE3B0E013
:10027000EDE3F0E0808181608C937894E7E4F0E036
:100280001082A5E4B0E0E5E4F0E0808185608C9325
:10029000A5E4B0E0E5E4F0E080818D7F8C93ECE7AD
:1002A000F0E08081ECE7F0E01082ACE7B0E0ECE752
:1002B000F0E0808180648C93AAE7B0E0EAE7F0E0A8
:1002C000808180688C931982E9E2F0E080818983E3
:1002D0008981882F90E0827090700097A1F38981C6
:1002E000882F90E084709070009719F00E94480069
:1002F000EACF0E949301E7CF1F920F920FB60F92A1
:1003000011248F93DF93CF93CDB7DEB78091000197
:100310008E7F80930001CF91DF918F910F900FBE60
:100320000F901F901895DF93CF93CDB7DEB7A4E45D
:10033000B0E0E4E4F0E0808183608C93A4E4B0E07A
:10034000E4E4F0E0808180688C93A4E4B0E0E4E42D
:10035000F0E0808180648C93E6E4F0E01082E7E4D2
:10036000F0E080E88083A5E4B0E0E5E4F0E080819F
:1003700085608C93A5E4B0E0E5E4F0E080818D7FBA
:100380008C937894E5E4F0E01082CF91DF910895AA
:10039000DF93CF9300D00F92CDB7DEB71982E4E898
:1003A000F0E011821082A0E8B0E0E0E8F0E08081A7
:1003B00083608C93A0E8B0E0E0E8F0E080818068A2
:1003C0008C93A0E8B0E0E0E8F0E0808180648C935A
:1003D000AFE6B0E0EFE6F0E0808181608C93E4E886
:1003E000F0E08081918189811816CCF7E4E8F0E093
:1003F00011821082F4CF1F920F920FB60F92112428
:100400008F93AF93BF93EF93FF93DF93CF93CDB7CA
:10041000DEB7A1E8B0E0E1E8F0E0808185608C9390
:10042000A1E8B0E0E1E8F0E080818D7F8C93CF918E
:10043000DF91FF91EF91BF91AF918F910F900FBE20
:0A0440000F901F901895F894FFCF5D
:00000001FF
