:100000000C9434000C9446000C9446000C9446006A
:100010000C9446000C9446000C9446000C94460048
:100020000C9446000C9446000C9446000C94460038
:100030000C9446000C9446000C9446000C94460028
:100040000C9486000C9446000C9446000C944600D8
:100050000C9446000C9446000C9446000C94460008
:100060000C9446000C94460011241FBECFEFD8E03C
:10007000DEBFCDBF11E0A0E0B1E001C01D92A23013
:10008000B107E1F70E9448000C94B1000C94000005
:10009000DF93CF93CDB7DEB7AAE2B0E0EAE2F0E0BB
:1000A000808180688C93AAE2B0E0EAE2F0E080818F
:1000B0008B7F8C93ABE2B0E0EBE2F0E08081846078
:1000C0008C93E4E4F0E01082E6E4F0E01082A5E432
:1000D000B0E0E5E4F0E0808185608C93A5E4B0E0D9
:1000E000E5E4F0E080818D7F8C93AEE6B0E0EEE653
:1000F000F0E0808181608C937894ABE2B0E0EBE239
:10010000F0E0908180E889278C93F7CF1F920F92BF
:100110000FB60F9211242F938F939F93DF93CF935A
:10012000CDB7DEB7809100019091010101969093C7
:10013000010180930001809100019091010121E073
:100140008133920720F01092010110920001CF91AB
:10015000DF919F918F912F910F900FBE0F901F9065
:060160001895F894FFCF92
:00000001FF
