:100000000C9434000C9446000C9446000C9446006A
:100010000C9446000C9446000C9446000C94460048
:100020000C9446000C9446000C9446000C94460038
:100030000C9446000C9446000C9446000C94460028
:100040000C9446000C9446000C9446000C94460018
:100050000C9446000C9446000C9446000C94460008
:100060000C9446000C94460011241FBECFEFD8E03C
:10007000DEBFCDBF11E0A0E0B1E001C01D92A23013
:10008000B107E1F70E9472000C947A010C94000011
:10009000DF93CF93CDB7DEB7AAE2B0E0EAE2F0E0BB
:1000A00080818D7F8C93AAE2B0E0EAE2F0E080816B
:1000B0008B7F8C93ABE2B0E0EBE2F0E0808182607A
:1000C0008C93A7E2B0E0E7E2F0E080818E7F8C9332
:1000D000AAE2B0E0EAE2F0E0808180648C93CF9104
:1000E000DF910895DF93CF930F92CDB7DEB70E94D3
:1000F0004800A4E4B0E0E4E4F0E0808183608C9305
:10010000A4E4B0E0E4E4F0E0808180688C93A4E4AF
:10011000B0E0E4E4F0E0808180648C93E6E4F0E019
:100120001082A5E4B0E0E5E4F0E0808185608C9386
:10013000A5E4B0E0E5E4F0E080818D7F8C93A9E652
:10014000B0E0E9E6F0E0808181608C93A9E6B0E060
:10015000E9E6F0E080818D7F8C93ADE3B0E0EDE3E4
:10016000F0E0808181608C9378941982E9E2F0E07C
:10017000808189838981882F90E0827090700097B8
:1001800079F08981882F90E084709070009721F039
:10019000E7E4F0E0108217C0E7E4F0E0108213C05B
:1001A0008981882F90E082709070009761F089813A
:1001B000882F90E084709070009719F00E94E900F9
:1001C00002C00E946F0180E090E00F90CF91DF911C
:1001D0000895DF93CF930F92CDB7DEB7ECE7F0E051
:1001E0002081ECE7F0E01082ACE7B0E0ECE7F0E073
:1001F000808180648C93AAE7B0E0EAE7F0E0808138
:1002000080688C93AAE7B0E0EAE7F0E08081806440
:100210008C93EAE7F0E08081882F90E08074907002
:100220000097B9F7E8E7F0E08081918190930101B0
:10023000809300018091000190910101823391052A
:1002400020F4E7E4F0E01082DDCF8091000190918E
:1002500001018233910560F08091000190910101CC
:10026000883C910528F4E7E4F0E080E48083CACF7D
:100270008091000190910101883C910568F0809186
:1002800000019091010121E0843F920728F4E7E406
:10029000F0E080E88083B6CF809100019091010169
:1002A00021E0843F920768F0809100019091010164
:1002B00023E0883E920728F4E7E4F0E080EC8083B6
:1002C000A1CF809100019091010123E0883E920727
:1002D00008F498CFE7E4F0E08FEF808393CFDF93CB
:1002E000CF93CDB7DEB7E7E4F0E080E88083CF912D
:0802F000DF910895F894FFCF9F
:00000001FF
